:0A05CF001122334455000000000023
:0E05A700050DFFFFFFFFFF0508FFFFFFFFFF31
:0B05C300E4FEEED39F4004000E80F722
:0105CE00220A
:10059300E4FFFED3EF9496EE940040070FBF0001F3
:0305A3000E80F0D7
:0105A6002232
:10056800EF1FAA0670011E4A600BE4FDEDC394C894
:0505780050EE0D80F7BC
:01057D00225B
:10054F00E4FEEF3392A4EF25E0FFD2A5A2A3E4339C
:08055F004207C2A50EBE08EA26
:010567002271
:0B0519007F071205B6AB07AD037F277C
:10052400C2A612054FAC07AF0512054FD2A6AF0401
:0105340022A4
:0C05B600C2A612054F7FFF12054FD2A60F
:0105C2002216
:06044E008B608A618962E7
:10045400C2A612054FAD07E4FCECC3956350177FA9
:10046400FF12054FAB60AA61A9628C82758300EF0D
:0A0474001201510C80E3D2A6AF057F
:01047E00225B
:070415007B007563057F30D9
:06041C008B608A61896219
:10042200C2A612054FAD07E4FCECC395635018ABAE
:10043200600562E562AA617002056114F91200F9B1
:0B044200FF12054F0C80E2D2A6AF05B0
:01044D00228C
:06047F008B558A568957D7
:10048500120519EB30E61FC2A7AB55AA56A9577539
:1004950063207F6112044E7DFF7FE2120524D2A7FF
:0804A5001205937F00227F0184
:0104AD00222C
:1004AE00C2A77563207FA012041CD2A720A2FD1242
:1004BE000519EB30E40A7DFF7FE11205247F10223F
:0904CE00EB30E5037F20227FFFE3
:0104D7002202
:10028A0078557C007D007BFF7A0579CF7E007F055B
:10029A001200D3785A7C007D007BFF7A0579D47EE0
:1002AA00007F051200D3C2A5D2A6C2A77A0079554B
:1002BA001204157B007A00795A7563057F101204BF
:1002CA004EE55AB41117E55BB42212E55CB4330D5E
:0F02DA00E55DB44408E55EB455037F00227F0163
:0102E90022F2
:10034400C2A77D207F311205247DFF7FE2120524A0
:100354007A00790D1204157B007A0079087563051B
:100364007F2A12041C7D017F211205247F2212059D
:10037400247D1A7F24120524E4FD7F251205247DA3
:0E0384000F7F261205247F20120524D2A72207
:1004FA00C2A77D0E7F20120524D2A77F0F1205C343
:0F050A001204AEC2A77D0F7F20120524D2A722B4
:1004D80012028AEF70FA12034420A2FD7B007A0010
:1004E800791212047FEF70F1FB7A0079121203DAA5
:0204F80080E79B
:0603DA008B558A5689577D
:1003E000E4F55AF55B12057E8E588F59120535AB30
:1003F00055AA56A957EF12013FE55924FFFFE558CA
:1004000034FFFEAB55AA56A9571202EAAB55AA56BD
:05041000A9570204FAE7
:10053500E4FBFAEF4E600E0BBB00010A7C007D0A5E
:0905450012017380EEAE02AF0357
:01054E00228A
:0A02EA008E5C8F5D8B5E8A5F896079
:1002F400E4F561F5621205358E618F62D3E562948F
:1003040000E561648094804036AE5CAF5D7C007D26
:100314000A120173ED2430AB5EAA5FA96085628284
:10032400856183120151AE5CAF5D7C007D0A1201D0
:0F033400738E5C8F5DE562156270C1156180BDCF
:010343002297
:060392008B328A3389342E
:1003980012057EEF24FFFFEE34FFFEC3EE64809467
:1003A80080401BAB32AA33A9348F828E831201128C
:1003B800FD74362FF8A605EF1F70E01E80DDAB3206
:1003C800AA33A93412057E8F357B007A007935026D
:0203D80004FA25
:030000000201FEFC
:0C01FE00787FE4F6D8FD758163020245AD
:10000300E709F608DFFA8046E709F208DFFA803EDF
:1000130088828C83E709F0A3DFFA8032E309F608CC
:10002300DFFA8078E309F208DFFA807088828C8334
:10003300E309F0A3DFFA806489828A83E0A3F608E8
:10004300DFFA805889828A83E0A3F208DFFA804CC2
:1000530080D280FA80C680D4806980F28033801099
:1000630080A680EA809A80A880DA80E280CA803302
:1000730089828A83ECFAE493A3C8C582C8CCC5837A
:10008300CCF0A3C8C582C8CCC583CCDFE9DEE7804A
:100093000D89828A83E493A3F608DFF9ECFAA9F0C9
:1000A300EDFB2289828A83ECFAE0A3C8C582C8CC1F
:1000B300C583CCF0A3C8C582C8CCC583CCDFEADE38
:1000C300E880DB89828A83E493A3F208DFF980CC9A
:1000D30088F0EF60010E4E60C388F0ED2402B40493
:1000E3000050B9F582EB2402B4040050AF2323453A
:0600F3008223900053730C
:1000F900BB010689828A83E0225002E722BBFE0205
:09010900E32289828A83E4932237
:10011200BB010CE58229F582E5833AF583E02250A2
:1001220006E92582F8E622BBFE06E92582F8E222EC
:0D013200E58229F582E5833AF583E4932206
:10013F00BB010689828A83F0225002F722BBFE019F
:02014F00F32299
:10015100F8BB010DE58229F582E5833AF583E8F0E4
:10016100225006E92582C8F622BBFE05E92582C890
:02017100F22278
:10017300C2D5EC30E709B2D5E4C39DFDE49CFCEEA7
:1001830030E715B2D5E4C39FFFE49EFE1201A9C375
:10019300E49DFDE49CFC80031201A930D507C3E470
:0601A3009FFFE49EFE2216
:10057E00E4FFFE1200F9600C0FEF70010E09E97036
:05058E00F20A80EF22DB
:10020A000204D8E493A3F8E493A34003F68001F22E
:10021A0008DFF48029E493A3F85407240CC8C333F5
:10022A00C4540F4420C8834004F456800146F6DFC4
:10023A00E4800B01020408102040809005A7E47EA8
:10024A00019360BCA3FF543F30E509541FFEE493B9
:10025A00A360010ECF54C025E060A840B8E493A380
:10026A00FAE493A3F8E493A3C8C582C8CAC583CAAB
:10027A00F0A3C8C582C8CAC583CADFE9DEE780BE63
:0105B5000045
:1001A900BC000BBE0029EF8DF084FFADF022E4CC3A
:1001B900F875F008EF2FFFEE33FEEC33FCEE9DEC03
:1001C900984005FCEE9DFE0FD5F0E9E4CEFD22ED49
:1001D900F8F5F0EE8420D21CFEADF075F008EF2F93
:1001E900FFED33FD4007985006D5F0F222C398FD84
:0501F9000FD5F0EA2221
:00000001FF
