:1002F800FEFDFBF7EFDFBF7F3F065B4F666D7D07B7
:090308007F6F777C395E7971008A
:1002C100010800140B000000000000000000000005
:0D02D1000000000000000000000209000015
:10017C00E4F521F5221203521200B2E51F603EE4B1
:10018C00F51FAF20EF3395E0FE74002FF58274035A
:10019C003EF583E493F50B752100752214AF2274A0
:1001AC000A2FF8E6FE740B2FF8A606E5221522702E
:1001BC00021521E522B4FFE5E521B4FFE01202129D
:0201CC0080B6FB
:10021200E4FFFE740B2FF8E6F58074F82FF5827474
:10022200023EF583E493F5A07D2C7C01ED1DAA042A
:1002320070011C4A70F6E4F5800FBF00010EEF64F6
:04024200084E70CF23
:010246002295
:1000B20075900FE590640F605C1203EEE590640F9B
:1000C2006053751F0175900FAF90EF24F5601024F7
:1000D200FE601114601324077012E4F520800D7580
:1000E2002001800875200280037520037590F0AF0F
:1000F20090EF2450600C24E0600C24F0600C24701B
:10010200800E7404800674088002740C2520F52089
:08011200E590B4F0FBAF2022E0
:0B03D100D2AFD2A8D288D2AAD28A22D2
:10038B00D2AF758901758CFC758A18D2A9D28C22D3
:030003000201CE29
:1001CE00C0E0C0F0C083C082C0D075D000C000C0F7
:1001DE0001C002C003C004C005C006C007C2A87F8C
:1001EE00011203656308FFD2A8D007D006D005D050
:1001FE0004D003D002D001D000D0D0D082D083D092
:04020E00F0D0E0321A
:030013000203F7EE
:0803F700C2AA750801D2AA3266
:03000B0002027777
:10027700C0E0C0D0758CFC758A18050AE50A7002C3
:100287000509B4E80EE509B4030963A0FF75090081
:08029700750A00D0D0D0E0325E
:10035200D2AFD2ACD28E758920759850758DFD754D
:030362008BFD22EE
:030023000202DFF7
:0702DF00C0D075D000C0077C
:0D02E600309808C298AF998F998002C29994
:0502F300D007D0D0325D
:0803DC007F017E02DEFEDFFA64
:0103E40022F6
:0803E5007F017E2FDEFEDFFA2E
:0103ED0022ED
:0C0016007F017E8E7D02DDFEDEFADFF64B
:0100220022BB
:0803EE007F137E82DEFEDFFAC0
:0103F60022E4
:0C03AA007F017E267D82DDFEDEFADFF69C
:0103B6002224
:0C03B7007F137E147D82DDFEDEFADFF68F
:0103C3002217
:0C03C4007F177E987D46DDFEDEFADFF636
:0103D000220A
:10036500C2A6C2A5C2A78F801203EED2A71203EEC2
:03037500C2A722FA
:10037800D2A6C2A5C2A78F801203EED2A71203EE9F
:03038800C2A722E7
:10032A007F381203657F0C1203657F011203657F14
:04033A0080020365D5
:10033E00D2A01203DCD2A11203DCC2A01203DCC2D3
:04034E00A10203DC29
:0F039B00C2A01203DCD2A11203DCD2A00203DC49
:02011A008F252F
:10011C00E4F526C2A1F526E5257807A2E713D8FB5E
:10012C0024FF92A0E52525E0F5251203DCD2A112CF
:10013C0003DCC2A11203DC0526C3E5266480948887
:10014C0040D5D2A01203DCD2A130A01C0527AF27CA
:10015C00EF3395E0FED3EF94C8EE6480948040E9D1
:0F016C00C2A11203DC7F0022C2A11203DC7F01BB
:01017B002261
:10024700E4F528F529D2A0F528D2A11203DCE52987
:1002570025E0F529A2A0E43342291203DCC2A1124A
:0F02670003DC0528C3E5286480948840DCAF29B8
:010276002265
:100311008F2A8D2B12033E7FA012011AAF2A1201E0
:090321001AAF2B12011A02039B12
:02029F008F2CA2
:1002A10012033E7FA012011AAF2C12011A12033E53
:0F02B1007FA112011A1202478F2D12039BAF2D4E
:0102C000221B
:03000000020026D5
:0C002600787FE4F6D8FD75812D02006D96
:1000320002017CE493A3F8E493A34003F68001F267
:1000420008DFF48029E493A3F85407240CC8C333CF
:10005200C4540F4420C8834004F456800146F6DF9E
:10006200E4800B01020408102040809002C1E47E6B
:10007200019360BCA3FF543F30E509541FFEE49393
:10008200A360010ECF54C025E060A840B8E493A35A
:10009200FAE493A3F8E493A3C8C582C8CAC583CA85
:1000A200F0A3C8C582C8CAC583CADFE9DEE780BE3D
:0102DE00001F
:00000001FF
