:10027600010800100B303132333435363738394106
:0902860042434445460209000010
:0500060012030380FE5F
:1000B20075900FE590640F605C12039FE590640FEA
:1000C2006053751B0175900FAF90EF24F5601024FB
:1000D200FE601114601324077012E4F51C800D7584
:1000E2001C018008751C028003751C037590F0AF1B
:1000F20090EF2450600C24E0600C24F0600C24701B
:10010200800E7404800674088002740C251CF51C91
:08011200E590B4F0FBAF1C22E4
:0B038200D2AFD2A8D288D2AAD28A2221
:10033C00D2AF758901758CFC758A18D2A9D28C2222
:0300030002017C7B
:10017C00C0E0C0F0C083C082C0D075D000C000C049
:10018C0001C002C003C004C005C006C007C2A87FDE
:10019C00011203166308FFD2A8D007D006D005D0F1
:1001AC0004D003D002D001D000D0D0D082D083D0E4
:0401BC00F0D0E0326D
:030013000203A83D
:0803A800C2AA750801D2AA32B5
:03000B0002022CC2
:10022C00C0E0C0D0758CFC758A18050AE50A70020E
:10023C000509B4E80EE509B4030963A0FF750900CC
:08024C00750A00D0D0D0E032A9
:10030300D2AFD2ACD28E758920759850758DFD759C
:030313008BFD223D
:0300230002029046
:07029000C0D075D000C007CB
:0D029700309808C298AF998F998002C299E3
:0502A400D007D0D032AC
:08038D007F017E02DEFEDFFAB3
:010395002245
:080396007F017E2FDEFEDFFA7D
:01039E00223C
:0C0016007F017E8E7D02DDFEDEFADFF64B
:0100220022BB
:08039F007F137E82DEFEDFFA0F
:0103A7002233
:0C035B007F017E267D82DDFEDEFADFF6EB
:010367002273
:0C0368007F137E147D82DDFEDEFADFF6DE
:010374002266
:0C0375007F177E987D46DDFEDEFADFF685
:010381002259
:10031600C2A6C2A5C2A78F8012039FD2A712039FAF
:03032600C2A72249
:10032900D2A6C2A5C2A78F8012039FD2A712039F8C
:03033900C2A72236
:1002DB007F381203167F0C1203167F011203167F51
:0402EB008002031674
:1002A900FEFDFBF7EFDFBF7F3F065B4F666D7D0706
:0902B9007F6F777C395E797100DA
:1001C000E4FFFE74B12FF58274023EF583E493F5EB
:1001D0008074A92FF58274023EF583E493F5907D37
:1001E0000A7C00ED1DAA0470011C4A70F6E4F5803B
:0B01F0000FBF00010EEF64084E70C846
:0101FB0022E1
:1002EF00D2A012038DD2A112038DC2A012038DC210
:0402FF00A102038DC8
:0F034C00C2A012038DD2A112038DD2A002038D85
:02011A008F1D37
:10011C00E4F51EC2A1F51EE51D7807A2E713D8FB76
:10012C0024FF92A0E51D25E0F51D12038DD2A1122E
:10013C00038DC2A112038D051EC3E51E6480948835
:10014C0040D5D2A012038DD2A130A01C051FAF1F29
:10015C00EF3395E0FED3EF94C8EE6480948040E9D1
:0F016C00C2A112038D7F0022C2A112038D7F0159
:01017B002261
:1001FC00E4F520F521D2A0F520D2A112038DE52142
:10020C0025E0F521A2A0E433422112038DC2A112F4
:0F021C00038D0520C3E5206480948840DCAF216A
:01022B0022B0
:1002C2008F228D231202EF7FA012011AAF22120198
:0902D2001AAF2312011A02034CB9
:020254008F24F5
:100256001202EF7FA012011AAF2412011A1202EF46
:0F0266007FA112011A1201FC8F2512034CAF2544
:010275002266
:03000000020026D5
:0C002600787FE4F6D8FD75812502006D9E
:10003200020006E493A3F8E493A34003F68001F2DE
:1000420008DFF48029E493A3F85407240CC8C333CF
:10005200C4540F4420C8834004F456800146F6DF9E
:10006200E4800B0102040810204080900276E47EB6
:10007200019360BCA3FF543F30E509541FFEE49393
:10008200A360010ECF54C025E060A840B8E493A35A
:10009200FAE493A3F8E493A3C8C582C8CAC583CA85
:1000A200F0A3C8C582C8CAC583CADFE9DEE780BE3D
:01028F00006E
:00000001FF
