:080A91007F017E02DEFEDFFAA8
:010A9900223A
:080A9A007F017E2FDEFEDFFA72
:010AA2002231
:0C0A3A007F017E8E7D02DDFEDEFADFF61D
:010A4600228D
:080AA3007F137E82DEFEDFFA04
:010AAB002228
:0C0A47007F017E267D82DDFEDEFADFF6F8
:010A53002280
:0C0A54007F137E147D82DDFEDEFADFF6EB
:010A60002273
:0C0A61007F177E987D46DDFEDEFADFF692
:010A6D002266
:030A190081000059
:1009CB00D2A0120A91D2A1120A91C2A0120A91C20C
:0409DB00A1020A91DA
:1009DF00C2A0120A91D2A1120A91D2A0120A91C2F8
:0409EF00A1020A91C6
:04058F007843EFF2CC
:10059300C2A1E47800F27843E2FF7807A2E713D818
:1005A300FB24FF92A0EF25E07843F2120A91D2A137
:1005B300120A91C2A1120A917800E204F2E2C36422
:1005C30080948840D1D2A0120A91D2A130A01E7883
:1005D30044E204F2E2FF3395E0FED3EF94C8EE6405
:1005E30080948040E7C2A1120A917F0022C2A11227
:0405F3000A917F01E9
:0105F70022E1
:10080600E4783FF2D2A07800F2D2A1120A91783FA2
:10081600E225E0FFF2A2A0E4334FF2120A91C2A150
:10082600120A917800E204F2E2C36480948840D907
:04083600783FE2FF26
:01083A00229B
:10093F007841EFF208EDF21209CB7FA012058F7804
:10094F0041E2FF12058F7842E2FF12058F1209DF95
:03095F00020A3A4F
:0408CB00783DEFF293
:1008CF001209CB7FA012058F783DE2FF12058F1220
:1008DF0009CB7FA112058F120806783EEFF212099D
:0508EF00DF783EE2FF8E
:0108F40022E1
:0A079400783DEBF208EAF208E9F202
:10079E00E408F2783DE2FB08E2FA08E2F908E2FF2B
:1007AE003395E08F82F583120112FD60117840E2DD
:0E07BE00FF12093F120A477840E204F280D58C
:0107CC00220A
:1009F300C2A6C2A5C2A78F80120AA3D2A7120AA3B6
:030A0300C2A72265
:100A0600D2A6C2A5C2A78F80120AA3D2A7120AA392
:030A1600C2A72252
:10099D007F381209F37F0C1209F37F061209F37FDA
:0909AD00011209F37F800209F335
:0A083B00783DEBF208EAF208E9F25A
:10084500E408F2783DE2FB08E2FA08E2F908E2FF83
:100855003395E08F82F583120112FF600A120A06B2
:070865007840E204F280DCA0
:01086C002269
:1003CF00506C656173652073746172742077697402
:1003DF0068203E0A00646973706C617920616E64F5
:1003EF00207361766520646174610A0057726974C5
:1003FF00653A006D6F7665206C6566740A00446916
:10040F0073706C6179206F6E207468652064696702
:10041F006974616C5F636F6E74726F6C0A006469EC
:10042F0073706C617920616E6420726561642066FF
:10043F00726F6D20454550524F4D0A0052656164F1
:10044F003A00546865206669667468206E756D623F
:10045F006572206572726F722028302D34290A0060
:10046F00FEFDFBF7EFDFBF7F3F065B4F666D7D073E
:09047F007F6F777C395E79710012
:1001FE00783C7401F212099D1205F8EF70FA12079D
:10020E000920B5FD7BFE7A0079011207CDEF70F162
:10021E007802E2643E60097BFF7A0379CF0203C95C
:10022E007803E26435601708E26432601108E26414
:10023E0031600B08E2643060057EFF7FFF22780795
:10024E00E224CE604114606E14700302038A24030C
:10025E0060030203C37BFF7A0379E41206B37F01C6
:10026E001209F37BFF7A0379FB12083B7BFE7A00BF
:10027E00790812083B7BFE7A007908120794783CC5
:10028E007401F202020F7BFF7A0479021206B37B2D
:10029E00FE7A00790812083BE4783BF2783BE2C321
:1002AE00940E400302020F7F181209F3120A6178AE
:1002BE003BE204F280E67BFF7A04790D1206B378F6
:1002CE0007E26433600302020F7BFE7A00790112AB
:1002DE0007CDE4783BF2783BE2FFC3940850E0EFA1
:1002EE00B40800504D9002FAF82828730203120247
:1002FE00031602031E02032202032A02032E020326
:10030E003602033AC2A28002D2A2C2A3C2A48022A3
:10031E00C2A28002D2A2D2A3C2A48016C2A280021E
:10032E00D2A2C2A3D2A4800AC2A28002D2A2D2A317
:10033E00D2A4783BE22408F8E2FFD394395006EFBA
:10034E009004478024E2FFD39466500CEFC394616F
:10035E004006EF9004208011E2FFD39446500DEF3B
:10036E00C394414007EF90044093F5907FF4AE079D
:10037E001FEE70FA783BE204F20202E47BFF7A048D
:10038E00792D1206B37F011209F37BFF7A04794BA4
:10039E0012083BE4783BF2783BE2FF2408F8E26077
:1003AE000D1208CB120A06783BE204F280E9E478DB
:1003BE003CF202020F7BFF7A0479511206B302025D
:0103CE000F1F
:0A0A87001122334455000000000066
:0E0A1C008536FFFFFFFFFF8531FFFFFFFFFF65
:0B0A7B00E4FEEEC39F5004000E80F765
:010A8600224D
:0E0A2B00E4FFFE0FBF00010EEF64964E70F563
:010A3900229A
:0A091B00EBF208EAF208E9F2C2B3B9
:10092500E4FEEF3392B4EF25E0FFD2B1A2B2E43397
:090935004FFFC2B10EEEB408E957
:01093E002296
:0B0981007F07120A6EAB07AD037F2753
:10098C00C2B3120925AC07AF05120925D2B3AF04C7
:01099C002238
:0C0A6E00C2B31209257FFF120925D2B384
:010A7A002259
:02086D007848C9
:10086F0012091BAD07E4FC784BE2FFECC39F501B52
:10087F007FFF1209257848E2FB08E2FA08E2F98CBB
:0F088F0082758300EF1201510C80DCD2B3AF05EC
:01089E002237
:090759007BFE78647405F27F3028
:020762007861BC
:1007640012091BAD07E4FC7864E2FFECC39F501B45
:100774007861E2FB0808E2F92401F218E2FA340095
:0F078400F21200F9FF1209250C80DCD2B3AF0589
:010793002243
:0A07CD00783DEBF208EAF208E9F2C9
:1007D700120981EB30E625C2B0783DE2FB08E2FA68
:1007E70008E2F9784B7420F27F6112086D7DFF7F74
:0E07F700E212098CD2B0120A2B7F00227F0181
:0108050022D0
:10089F00C2B078647420F27FA0120762D2B020B584
:1008AF00FD120981EB30E40A7DFF7FE112098C7F95
:0B08BF001022EB30E5037F20227FFFBA
:0108CA00220B
:1005F800783D7C007DFE7BFF7A0A79877E007F0547
:100608001200D378427C007DFE7BFF7A0A798C7ECB
:10061800007F051200D3C2B1D2B3C2B07A00793DCF
:100628001207597BFE7A007942784B7405F27F10E5
:1006380012086D7842E26411701708E2B4221208B9
:10064800E2B4330D08E2B4440808E2B455037F006D
:03065800227F01FD
:01065B00227C
:10070900C2B07D207F3112098C7DFF7FE212098CF6
:100719007A0079361207597BFE7A00793178647448
:1007290005F27F2A1207627D017F2112098C7F223F
:1007390012098C7D1A7F2412098CE4FD7F25120988
:100749008C7D0F7F2612098C7F2012098CD2B02252
:10096200C2B07D0E7F2012098CD2B07F0F120A7B9B
:0F09720012089FC2B07D0F7F2012098CD2B022D5
:0A065C007821EBF208EAF208E9F257
:10066600E47826F208F21209B67824EEF208EFF2E0
:1006760024FFFFEE34FFFE1208F57821E2FB08E2C4
:10068600FA08E2F9EF12013F7825E224FFFF18E2AB
:1006960034FFFE7821E2FB08E2FA08E2F9120514BB
:0D06A6007821E2FB08E2FA08E2F90209629D
:1008F500E47828F208F2EF4E60147829E22401F238
:1009050018E23400F27C007D0A12017380E8782831
:05091500E2FE08E2FF14
:01091A0022BA
:10051400782CEBF208EAF208E9F2782AEEF208EF16
:01052400F2E4
:10052500E4782FF208F21208F5782FEEF208EFF2D0
:10053500D37830E2940018E264809480404B782AA6
:10054500E2FE08E2FF7C007D0A120173ED2430FF14
:10055500782CE2FB08E2FA08E2F908E2FC08E2F589
:10056500828C83EF120151782AE2FE08E2FF7C00BB
:100575007D0A120173782AEEF208EFF27830E22450
:09058500FFF218E234FFF280A736
:01058E00224A
:0A06B300783DEBF208EAF208E9F2E4
:1006BD001209B6EF24FFFFEE34FFFEC3EE64809403
:1006CD0080401F783DE2FB08E2FA08E2F98F828E46
:1006DD0083120112FD74412FF8EDF2EF1F70DC1E35
:1006ED0080D9783DE2FB08E2FA08E2F91209B67802
:0C06FD0040EFF27BFE7A007940020962B7
:030000000204886F
:0C048800787FE4F6D8FD7581070204CFF0
:10000300E709F608DFFA8046E709F208DFFA803EDF
:1000130088828C83E709F0A3DFFA8032E309F608CC
:10002300DFFA8078E309F208DFFA807088828C8334
:10003300E309F0A3DFFA806489828A83E0A3F608E8
:10004300DFFA805889828A83E0A3F208DFFA804CC2
:1000530080D280FA80C680D4806980F28033801099
:1000630080A680EA809A80A880DA80E280CA803302
:1000730089828A83ECFAE493A3C8C582C8CCC5837A
:10008300CCF0A3C8C582C8CCC583CCDFE9DEE7804A
:100093000D89828A83E493A3F608DFF9ECFAA9F0C9
:1000A300EDFB2289828A83ECFAE0A3C8C582C8CC1F
:1000B300C583CCF0A3C8C582C8CCC583CCDFEADE38
:1000C300E880DB89828A83E493A3F208DFF980CC9A
:1000D30088F0EF60010E4E60C388F0ED2402B40493
:1000E3000050B9F582EB2402B4040050AF2323453A
:0600F3008223900053730C
:1000F900BB010689828A83E0225002E722BBFE0205
:09010900E32289828A83E4932237
:10011200BB010CE58229F582E5833AF583E02250A2
:1001220006E92582F8E622BBFE06E92582F8E222EC
:0D013200E58229F582E5833AF583E4932206
:10013F00BB010689828A83F0225002F722BBFE019F
:02014F00F32299
:10015100F8BB010DE58229F582E5833AF583E8F0E4
:10016100225006E92582C8F622BBFE05E92582C890
:02017100F22278
:10017300C2D5EC30E709B2D5E4C39DFDE49CFCEEA7
:1001830030E715B2D5E4C39FFFE49EFE1201A9C375
:10019300E49DFDE49CFC80031201A930D507C3E470
:0601A3009FFFE49EFE2216
:1009B600E4FFFE1200F9600C0FEF70010E09E970FA
:0509C600F20A80EF229F
:100494000201FEE493A3F8E493A34003F68001F27F
:1004A40008DFF48029E493A3F85407240CC8C33369
:1004B400C4540F4420C8834004F456800146F6DF38
:1004C400E4800B0102040810204080900A19E47EA5
:1004D400019360BCA3FF543F30E509541FFEE4932D
:1004E400A360010ECF54C025E060A840B8E493A3F4
:1004F400FAE493A3F8E493A3C8C582C8CAC583CA1F
:10050400F0A3C8C582C8CAC583CADFE9DEE780BED6
:010A2A0000CB
:1001A900BC000BBE0029EF8DF084FFADF022E4CC3A
:1001B900F875F008EF2FFFEE33FEEC33FCEE9DEC03
:1001C900984005FCEE9DFE0FD5F0E9E4CEFD22ED49
:1001D900F8F5F0EE8420D21CFEADF075F008EF2F93
:1001E900FFED33FD4007985006D5F0F222C398FD84
:0501F9000FD5F0EA2221
:00000001FF
