:080750007F017E02DEFEDFFAEC
:01075800227E
:080759007F017E2FDEFEDFFAB6
:010761002275
:0C0703007F017E8E7D02DDFEDEFADFF657
:01070F0022C7
:080762007F137E82DEFEDFFA48
:01076A00226C
:0C0710007F017E267D82DDFEDEFADFF632
:01071C0022BA
:0C071D007F137E147D82DDFEDEFADFF625
:0107290022AD
:0C072A007F177E987D46DDFEDEFADFF6CC
:0107360022A0
:1006AF00C2A6C2A5C2A78F80120762D2A712076285
:0306BF00C2A722AD
:1006C200D2A6C2A5C2A78F80120762D2A712076262
:0306D200C2A7229A
:100673007F381206AF7F0C1206AF7F011206AF7FE1
:04068300800206AF3C
:10068700D2A0120750D2A1120750C2A0120750C21F
:04069700A102075065
:0F06E500C2A0120750D2A1120750D2A002075094
:02028A008F5A89
:10028C00E4F55BC2A1F55BE55A7807A2E713D8FB4E
:10029C0024FF92A0E55A25E0F55A120750D2A1127C
:1002AC000750C2A1120750055BC3E55B64809488BC
:1002BC0040D5D2A0120750D2A130A01C055CAF5C77
:1002CC00EF3395E0FED3EF94C8EE6480948040E960
:0F02DC00C2A11207507F0022C2A11207507F015A
:0102EB0022F0
:1004EB00E4F55DF55ED2A0F55DD2A1120750E55E95
:1004FB0025E0F55EA2A0E433425E120750C2A112C2
:0F050B000750055DC3E55D6480948840DCAF5EFA
:01051A0022BE
:100616008F5F8D601206877FA012028AAF5F12027B
:090626008AAF6012028A0206E5A7
:02059F008F616A
:1005A1001206877FA012028AAF6112028A120687A1
:0F05B1007FA112028A1204EB8F621206E5AF627D
:0105C0002218
:1006D50073746172740011223344550000000000E8
:0E06F400050DFFFFFFFFFF0508FFFFFFFFFFE3
:0B074400E4FEEED39F4004000E80F79F
:01074F002287
:10069B00E4FFFED3EF9496EE940040070FBF0001EA
:0306AB000E80F0CE
:0106AE002229
:10064800EF1FAA0670011E4A600BE4FDEDC394C8B3
:0506580050EE0D80F7DB
:01065D00227A
:10062F00E4FEEF3392B4EF25E0FFD2B1A2B2E43390
:08063F004207C2B10EBE08EA39
:010647002290
:0B05E0007F07120737AB07AD037F2732
:1005EB00C2B312062FAC07AF0512062FD2B3AF045E
:0105FB0022DD
:0C073700C2B312062F7FFF12062FD2B3B0
:010743002293
:0604BA008B3D8A3E893FE4
:1004C000C2B312062FAD07E4FCECC3954050177F72
:1004D000FF12062FAB3DAA3EA93F8C82758300EF29
:0A04E0001201510C80E3D2B3AF0506
:0104EA0022EF
:070481007B007559057F3077
:060488008B568A578958CB
:10048E00C2B312062FAD07E4FCECC395595018AB5E
:10049E00560558E558AA577002055714F91200F977
:0B04AE00FF12062F0C80E2D2B3AF0556
:0104B9002220
:06051B008B328A338934A3
:100521001205E0EB30E61FC2B0AB32AA33A9347535
:1005310040207F611204BA7DFF7FE21205EBD2B049
:0805410012069B7F00227F01DE
:01054900228F
:10057500C2B07559207FA0120488D2B020B5FD12F3
:1005850005E0EB30E40A7DFF7FE11205EB7F1022E9
:09059500EB30E5037F20227FFF1B
:01059E00223A
:1002EC0078327C007D007BFF7A0679DB7E007F050F
:1002FC001200D378377C007D007BFF7A0679E07E94
:10030C00007F051200D3C2B1D2B3C2B07A007932E9
:10031C001204817B007A0079377540057F10120436
:10032C00BAE537B41117E538B42212E539B4330DF8
:0F033C00E53AB44408E53BB455037F00227F0146
:01034B00228F
:1003A600C2B07D207F311205EB7DFF7FE21205EBA7
:1003B6007A00790D1204817B007A00790875590557
:1003C6007F2A1204887D017F211205EB7F22120508
:1003D600EB7D1A7F241205EBE4FD7F251205EB7DEC
:0E03E6000F7F261205EB7F201205EBD2B0220E
:1005C100C2B07D0E7F201205EBD2B07F0F1207441F
:0F05D100120575C2B07D0F7F201205EBD2B0224C
:10054A001202ECEF70FA1203A67BFF7A0679D51233
:10055A0003F420B5FD7B007A00791212051BEF70B7
:0B056A00F1FB7A00791212043C80E7DC
:06043C008B328A33893483
:10044200E4F537F53812065E8E358F36E53624FF31
:10045200FFE53534FFFE1205FCAB32AA33A934EFB7
:1004620012013FE53624FFFFE53534FFFEAB32AA29
:0F04720033A93412034CAB32AA33A9340205C1AB
:1005FC00E4FBFAEF4E600E0BBB00010A7C007D0A97
:09060C0012017380EEAE02AF038F
:0106150022C2
:0A034C008E398F3A8B3B8A3C893DC5
:10035600E4F53EF53F1205FC8E3E8F3FD3E53F9414
:1003660000E53E648094804036AE39AF3A7C007D2D
:100376000A120173ED2430AB3BAA3CA93D853F82AE
:10038600853E83120151AE39AF3A7C007D0A1201D7
:0F039600738E398F3AE53F153F70C1153E80BD1C
:0103A5002235
:0603F4008B328A338934CC
:1003FA0012065EEF24FFFFEE34FFFEC3EE64809424
:10040A0080401BAB32AA33A9348F828E8312011229
:10041A00FD74362FF8A605EF1F70E01E80DDAB32A3
:10042A00AA33A93412065E8F357B007A0079350229
:02043A0005C1FA
:030000000201FEFC
:0C01FE00787FE4F6D8FD758162020245AE
:10000300E709F608DFFA8046E709F208DFFA803EDF
:1000130088828C83E709F0A3DFFA8032E309F608CC
:10002300DFFA8078E309F208DFFA807088828C8334
:10003300E309F0A3DFFA806489828A83E0A3F608E8
:10004300DFFA805889828A83E0A3F208DFFA804CC2
:1000530080D280FA80C680D4806980F28033801099
:1000630080A680EA809A80A880DA80E280CA803302
:1000730089828A83ECFAE493A3C8C582C8CCC5837A
:10008300CCF0A3C8C582C8CCC583CCDFE9DEE7804A
:100093000D89828A83E493A3F608DFF9ECFAA9F0C9
:1000A300EDFB2289828A83ECFAE0A3C8C582C8CC1F
:1000B300C583CCF0A3C8C582C8CCC583CCDFEADE38
:1000C300E880DB89828A83E493A3F208DFF980CC9A
:1000D30088F0EF60010E4E60C388F0ED2402B40493
:1000E3000050B9F582EB2402B4040050AF2323453A
:0600F3008223900053730C
:1000F900BB010689828A83E0225002E722BBFE0205
:09010900E32289828A83E4932237
:10011200BB010CE58229F582E5833AF583E02250A2
:1001220006E92582F8E622BBFE06E92582F8E222EC
:0D013200E58229F582E5833AF583E4932206
:10013F00BB010689828A83F0225002F722BBFE019F
:02014F00F32299
:10015100F8BB010DE58229F582E5833AF583E8F0E4
:10016100225006E92582C8F622BBFE05E92582C890
:02017100F22278
:10017300C2D5EC30E709B2D5E4C39DFDE49CFCEEA7
:1001830030E715B2D5E4C39FFFE49EFE1201A9C375
:10019300E49DFDE49CFC80031201A930D507C3E470
:0601A3009FFFE49EFE2216
:10065E00E4FFFE1200F9600C0FEF70010E09E97055
:05066E00F20A80EF22FA
:10020A0002054AE493A3F8E493A34003F68001F2BB
:10021A0008DFF48029E493A3F85407240CC8C333F5
:10022A00C4540F4420C8834004F456800146F6DFC4
:10023A00E4800B01020408102040809006F4E47E5A
:10024A00019360BCA3FF543F30E509541FFEE493B9
:10025A00A360010ECF54C025E060A840B8E493A380
:10026A00FAE493A3F8E493A3C8C582C8CAC583CAAB
:10027A00F0A3C8C582C8CAC583CADFE9DEE780BE63
:0107020000F6
:1001A900BC000BBE0029EF8DF084FFADF022E4CC3A
:1001B900F875F008EF2FFFEE33FEEC33FCEE9DEC03
:1001C900984005FCEE9DFE0FD5F0E9E4CEFD22ED49
:1001D900F8F5F0EE8420D21CFEADF075F008EF2F93
:1001E900FFED33FD4007985006D5F0F222C398FD84
:0501F9000FD5F0EA2221
:00000001FF
