:080A31007F017E02DEFEDFFA08
:010A3900229A
:080A3A007F017E2FDEFEDFFAD2
:010A42002291
:0C09DA007F017E8E7D02DDFEDEFADFF67E
:0109E60022EE
:080A43007F137E82DEFEDFFA64
:010A4B002288
:0C09E7007F017E267D82DDFEDEFADFF659
:0109F30022E1
:0C09F4007F137E147D82DDFEDEFADFF64C
:010A000022D3
:0C0A01007F177E987D46DDFEDEFADFF6F2
:010A0D0022C6
:0309C800810000AB
:10096600D2A0120A31D2A1120A31C2A0120A31C291
:04097600A1020A319F
:10097A00C2A0120A31D2A1120A31D2A0120A31C27D
:04098A00A1020A318B
:0404C1007843EFF29B
:1004C500C2A1E47800F27843E2FF7807A2E713D8E7
:1004D500FB24FF92A0EF25E07843F2120A31D2A166
:1004E500120A31C2A1120A317800E204F2E2C364B1
:1004F50080948840D1D2A0120A31D2A130A01E78B2
:1005050044E204F2E2FF3395E0FED3EF94C8EE64D3
:1005150080948040E7C2A1120A317F0022C2A11255
:040525000A317F0117
:0105290022AF
:1007A100E4783FF2D2A07800F2D2A1120A31783F68
:1007B100E225E0FFF2A2A0E4334FF2120A31C2A116
:1007C100120A317800E204F2E2C36480948840D9CD
:0407D100783FE2FF8C
:0107D5002201
:1008DA007841EFF208EDF21209667FA01204C1789E
:1008EA0041E2FF1204C17842E2FF1204C112097AFE
:0308FA00020A43AC
:04086600783DEFF2F8
:10086A001209667FA01204C1783DE2FF1204C11288
:10087A0009667FA11204C11207A1783EEFF212099C
:05088A007A783EE2FF58
:01088F002246
:0A072E00783DEBF208EAF208E9F268
:10073800E408F2783DE2FB08E2FA08E2F9900001E9
:10074800120112601A7840E2FFFD3395E08D82F5C0
:0F07580083120112FD1208DA7840E204F280D415
:01076700226F
:1009A200C2A6C2A5C2A78F80120A43D2A7120A43C7
:0309B200C2A722B7
:1009B500D2A6C2A5C2A78F80120A43D2A7120A43A4
:0309C500C2A722A4
:100938007F381209A27F0C1209A27F061209A27F32
:09094800011209A27F800209A23C
:0A07D600783DEBF208EAF208E9F2C0
:1007E000E408F2783DE2FB08E2FA08E2F908E2FFE9
:1007F0003395E08F82F583120112FF600A1209B56A
:070800007840E204F280DC05
:0108070022CE
:10052A0052004900506C656173652073746172747E
:10053A002077697468203E0A00480057726974651A
:10054A003A00526561643A00506C656173652063D4
:10055A006865636B207468652066696674682063E1
:10056A00686172616374657228302D34290A00FE4D
:10057A00FDFBF7EFDFBF7F3F065B4F666D7D077FB1
:08058A006F777C395E79710086
:1001FE00783C7401F2120938120592EF70FA120669
:10020E00A37BFF7A05792A1207D62095FD7BFF7A0C
:10021E0005792C1207D67BFE7A007901120768EF5A
:10022E0070E87802E2643E600B7BFF7A05792E124D
:10023E00064D801E7803E26435601708E264326072
:10024E001108E26431600B08E2643060057EFF7FC6
:10025E00FF227807E26431702B7BFF7A0579431217
:10026E0007D67BFF7A0579451207D67BFE7A007991
:10027E00081207D67BFE7A00790812072E783C7496
:10028E0001F280867807E2B432277BFE7A00790885
:10029E001207D6E4783BF2783BE2C3940E40030299
:1002AE0002187F181209A2120A01783BE204F280AA
:1002BE00E67807E2FF64336003020376783BF27858
:1002CE003BE2FEC394084003020218EEB40800504D
:1002DE004D9002E6F82828730202FE020302020382
:1002EE000A02030E02031602031A02032202032657
:1002FE00C2A28002D2A2C2A3C2A48022C2A2800243
:10030E00D2A2D2A3C2A48016C2A28002D2A2C2A33B
:10031E00D2A4800AC2A28002D2A2D2A3D2A4783BD7
:10032E00E22408F8E2FED394395006EE900551808F
:10033E0024E2FED39466500CEEC394614006EE9018
:10034E00052A8011E2FED39446500DEEC39441402F
:10035E0007EE90054A93F5B07EF4AD061EED70FAE9
:10036E00783BE204F20202CDEF64347033783CE263
:10037E0070030202187BFF7A05794C1207D6E478D7
:10038E003BF2783BE2FF2408F8E2600D1208661299
:10039E0009B5783BE204F280E9E4783CF2020218F7
:0C03AE007BFF7A05795212064D020218FE
:0A0A270011223344550000000000C6
:0E09CB008536FFFFFFFFFF8531FFFFFFFFFFB7
:0B0A1B00E4FEEED39F4004000E80F7C5
:010A260022AD
:10098E00E4FFFED3EF9496EE940040070FBF0001F4
:03099E000E80F0D8
:0109A1002233
:0A08B600EBF208EAF208E9F2C2933F
:1008C000E4FEEF339294EF25E0FFD291A292E4335D
:0908D0004FFFC2910EEEB408E9DD
:0108D90022FC
:0B091C007F07120A0EAB07AD037F2718
:10092700C2931208C0AC07AF051208C0D293AF0438
:01093700229D
:0C0A0E00C2931208C07FFF1208C0D293F0
:010A1A0022B9
:0208080078482E
:10080A001208B6AD07E4FC784BE2FFECC39F501B1D
:10081A007FFF1208C07848E2FB08E2FA08E2F98C86
:0F082A0082758300EF1201510C80DCD293AF0571
:01083900229C
:0906F3007BFE78647405F27F308F
:0206FC00786123
:1006FE001208B6AD07E4FC7864E2FFECC39F501B12
:10070E007861E2FB0808E2F92401F218E2FA3400FB
:0F071E00F21200F9FF1208C00C80DCD293AF0575
:01072D0022A9
:0A076800783DEBF208EAF208E9F22E
:1007720012091CEB30E625C290783DE2FB08E2FA52
:1007820008E2F9784B7420F27F611208087DFF7F3E
:0E079200E2120927D29012098E7F00227F0109
:0107A0002236
:10083A00C29078647420F27FA01206FCD2902095B0
:10084A00FD12091CEB30E40A7DFF7FE11209277FC4
:0B085A001022EB30E5037F20227FFF1F
:010865002270
:10059200783D7C007DFE7BFF7A0A79277E007F050D
:1005A2001200D378427C007DFE7BFF7A0A792C7E92
:1005B200007F051200D3C291D293C2907A00793D96
:1005C2001206F37BFE7A007942784B7405F27F10B3
:1005D2001208087842E26411701708E2B422120885
:1005E200E2B4330D08E2B4440808E2B455037F00D4
:0305F200227F0164
:0105F50022E3
:1006A300C2907D207F311209277DFF7FE212092747
:1006B3007A0079361206F37BFE7A00793178647416
:1006C30005F27F2A1206FC7D017F211209277F2272
:1006D3001209277D1A7F24120927E4FD7F251209B9
:1006E300277D0F7F261209277F20120927D2902208
:1008FD00C2907D0E7F20120927D2907F0F120A1B06
:0F090D0012083AC2907D0F7F20120927D2902244
:0A05F6007821EBF208EAF208E9F2BE
:10060000E47826F208F21209517824EEF208EFF2AB
:1006100024FFFFEE34FFFE1208907821E2FB08E28F
:10062000FA08E2F9EF12013F7825E224FFFF18E211
:1006300034FFFE7821E2FB08E2FA08E2F9120446F0
:0D0640007821E2FB08E2FA08E2F90208FD69
:10089000E47828F208F2EF4E60147829E22401F29D
:1008A00018E23400F27C007D0A12017380E8782897
:0508B000E2FE08E2FF7A
:0108B5002220
:10044600782CEBF208EAF208E9F2782AEEF208EFE5
:01045600F2B3
:10045700E4782FF208F2120890782FEEF208EFF204
:10046700D37830E2940018E264809480404B782A75
:10047700E2FE08E2FF7C007D0A120173ED2430FFE3
:10048700782CE2FB08E2FA08E2F908E2FC08E2F558
:10049700828C83EF120151782AE2FE08E2FF7C008A
:1004A7007D0A120173782AEEF208EFF27830E2241F
:0904B700FFF218E234FFF280A705
:0104C0002219
:0A064D00783DEBF208EAF208E9F24A
:10065700120951EF24FFFFEE34FFFEC3EE648094CE
:1006670080401F783DE2FB08E2FA08E2F98F828EAC
:1006770083120112FD74412FF8EDF2EF1F70DC1E9B
:1006870080D9783DE2FB08E2FA08E2F912095178CD
:0C06970040EFF27BFE7A0079400208FD83
:030000000203BA3E
:0C03BA00787FE4F6D8FD7581070204018D
:10000300E709F608DFFA8046E709F208DFFA803EDF
:1000130088828C83E709F0A3DFFA8032E309F608CC
:10002300DFFA8078E309F208DFFA807088828C8334
:10003300E309F0A3DFFA806489828A83E0A3F608E8
:10004300DFFA805889828A83E0A3F208DFFA804CC2
:1000530080D280FA80C680D4806980F28033801099
:1000630080A680EA809A80A880DA80E280CA803302
:1000730089828A83ECFAE493A3C8C582C8CCC5837A
:10008300CCF0A3C8C582C8CCC583CCDFE9DEE7804A
:100093000D89828A83E493A3F608DFF9ECFAA9F0C9
:1000A300EDFB2289828A83ECFAE0A3C8C582C8CC1F
:1000B300C583CCF0A3C8C582C8CCC583CCDFEADE38
:1000C300E880DB89828A83E493A3F208DFF980CC9A
:1000D30088F0EF60010E4E60C388F0ED2402B40493
:1000E3000050B9F582EB2402B4040050AF2323453A
:0600F3008223900053730C
:1000F900BB010689828A83E0225002E722BBFE0205
:09010900E32289828A83E4932237
:10011200BB010CE58229F582E5833AF583E02250A2
:1001220006E92582F8E622BBFE06E92582F8E222EC
:0D013200E58229F582E5833AF583E4932206
:10013F00BB010689828A83F0225002F722BBFE019F
:02014F00F32299
:10015100F8BB010DE58229F582E5833AF583E8F0E4
:10016100225006E92582C8F622BBFE05E92582C890
:02017100F22278
:10017300C2D5EC30E709B2D5E4C39DFDE49CFCEEA7
:1001830030E715B2D5E4C39FFFE49EFE1201A9C375
:10019300E49DFDE49CFC80031201A930D507C3E470
:0601A3009FFFE49EFE2216
:10095100E4FFFE1200F9600C0FEF70010E09E9705F
:05096100F20A80EF2204
:1003C6000201FEE493A3F8E493A34003F68001F24E
:1003D60008DFF48029E493A3F85407240CC8C33338
:1003E600C4540F4420C8834004F456800146F6DF07
:1003F600E4800B01020408102040809009C8E47EC6
:10040600019360BCA3FF543F30E509541FFEE493FB
:10041600A360010ECF54C025E060A840B8E493A3C2
:10042600FAE493A3F8E493A3C8C582C8CAC583CAED
:10043600F0A3C8C582C8CAC583CADFE9DEE780BEA5
:0109D900001D
:1001A900BC000BBE0029EF8DF084FFADF022E4CC3A
:1001B900F875F008EF2FFFEE33FEEC33FCEE9DEC03
:1001C900984005FCEE9DFE0FD5F0E9E4CEFD22ED49
:1001D900F8F5F0EE8420D21CFEADF075F008EF2F93
:1001E900FFED33FD4007985006D5F0F222C398FD84
:0501F9000FD5F0EA2221
:00000001FF
