:080AC4007F017E02DEFEDFFA75
:010ACC002207
:080ACD007F017E2FDEFEDFFA3F
:010AD50022FE
:0C0A6D007F017E8E7D02DDFEDEFADFF6EA
:010A7900225A
:080AD6007F137E82DEFEDFFAD1
:010ADE0022F5
:0C0A7A007F017E267D82DDFEDEFADFF6C5
:010A8600224D
:0C0A87007F137E147D82DDFEDEFADFF6B8
:010A93002240
:0C0A94007F177E987D46DDFEDEFADFF65F
:010AA0002233
:030A4C0081000026
:1009FE00D2A0120AC4D2A1120AC4C2A0120AC4C240
:040A0E00A1020AC473
:100A1200C2A0120AC4D2A1120AC4D2A0120AC4C22B
:040A2200A1020AC45F
:0405C2007843EFF299
:1005C600C2A1E47800F27843E2FF7807A2E713D8E5
:1005D600FB24FF92A0EF25E07843F2120AC4D2A1D1
:1005E600120AC4C2A1120AC47800E204F2E2C36489
:1005F60080948840D1D2A0120AC4D2A130A01E781D
:1006060044E204F2E2FF3395E0FED3EF94C8EE64D1
:1006160080948040E7C2A1120AC47F0022C2A112C0
:040626000AC47F0182
:01062A0022AD
:10083900E4783FF2D2A07800F2D2A1120AC4783F3C
:10084900E225E0FFF2A2A0E4334FF2120AC4C2A1EA
:10085900120AC47800E204F2E2C36480948840D9A1
:04086900783FE2FFF3
:01086D002268
:100972007841EFF208EDF21209FE7FA01205C2786B
:1009820041E2FF1205C27842E2FF1205C2120A12C8
:03099200020A6DE9
:0408FE00783DEFF260
:100902001209FE7FA01205C2783DE2FF1205C21253
:1009120009FE7FA11205C2120839783EEFF2120ACF
:0509220012783EE2FF27
:0109270022AD
:0A07C700783DEBF208EAF208E9F2CF
:1007D100E408F2783DE2FB08E2FA08E2F908E2FFF8
:1007E1003395E08F82F583120112FD60117840E2AA
:0E07F100FF120972120A7A7840E204F280D5F3
:0107FF0022D7
:100A2600C2A6C2A5C2A78F80120AD6D2A7120AD61C
:030A3600C2A72232
:100A3900D2A6C2A5C2A78F80120AD6D2A7120AD6F9
:030A4900C2A7221F
:1009D0007F38120A267F0C120A267F06120A267F0B
:0909E00001120A267F80020A269A
:0A086E00783DEBF208EAF208E9F227
:10087800E408F2783DE2FB08E2FA08E2F908E2FF50
:100888003395E08F82F583120112FF600A120A394C
:070898007840E204F280DC6D
:01089F002236
:1003E200506C6561736520737461727420776974EF
:1003F20068203E0A00646973706C617920616E64E2
:10040200207361766520646174610A0057726974B1
:10041200653A006D6F7665206C6566740A00446902
:1004220073706C6179206F6E2074686520646967EF
:100432006974616C5F636F6E74726F6C0A004469F9
:1004420073706C6179206F6E207468652000646936
:10045200676974616C5F636F6E74726F6C0064695C
:1004620073706C617920616E6420726561642066CC
:10047200726F6D20454550524F4D0A0052656164BE
:100482003A00546865206669667468206E756D620C
:100492006572206572726F722028302D34290A002D
:1004A200FEFDFBF7EFDFBF7F3F065B4F666D7D070B
:0904B2007F6F777C395E797100DF
:1001FE00783C7401F21209D012062BEF70FA120736
:10020E003C20B5FD7BFE7A007901120800EF70F1FB
:10021E007802E2643E60097BFF7A0379E20203DC36
:10022E007803E26435601708E26432601108E26414
:10023E0031600B08E2643060057EFF7FFF22780795
:10024E00E224CE604114606514700302039D240302
:10025E0060030203D67BFF7A0379F71206E67F016D
:10026E00120A267BFF7A04790E12086E7BFE7A0044
:10027E00790812086E7BFE7A0079081207C7783C5F
:10028E007401F202020F7BFF7A0479151206E6E47E
:10029E00783BF2783BE2C3940E400302020F7F18C4
:1002AE00120A26120A87783BE204F280E67BFF7A76
:1002BE000479201206E67F01120A267BFF7A047962
:1002CE004012086E7FC0120A267BFF7A0479501204
:1002DE00086E7807E26433600302020F7BFE7A0039
:1002EE007901120800E4783BF2783BE2FFC39408F0
:1002FE0050E0EFB40800504D90030DF8282873021B
:10030E00032502032902033102033502033D0203D2
:10031E004102034902034DC2A28002D2A2C2A3C26D
:10032E00A48022C2A28002D2A2D2A3C2A48016C2EC
:10033E00A28002D2A2C2A3D2A4800AC2A28002D2FA
:10034E00A2D2A3D2A4783BE22408F8E2FFD39439D8
:10035E005006EF90047A8024E2FFD39466500CEF9F
:10036E00C394614006EF9004538011E2FFD394468C
:10037E00500DEFC394414007EF90047393F5907FB7
:10038E00F4AE071FEE70FA783BE204F20202F77B3E
:10039E00FF7A0479601206E67F01120A267BFF7A45
:1003AE0004797E12086EE4783BF2783BE2FF240873
:1003BE00F8E2600D1208FE120A39783BE204F28070
:1003CE00E9E4783CF202020F7BFF7A04798412068C
:0403DE00E602020F22
:0A0ABA001122334455000000000033
:0E0A4F008536FFFFFFFFFF8531FFFFFFFFFF32
:0B0AAE00E4FEEEC39F5004000E80F732
:010AB900221A
:0E0A5E00E4FFFE0FBF00010EEF64964E70F530
:010A6C002267
:0A094E00EBF208EAF208E9F2C2B386
:10095800E4FEEF3392B4EF25E0FFD2B1A2B2E43364
:090968004FFFC2B10EEEB408E924
:010971002263
:0B09B4007F07120AA1AB07AD037F27ED
:1009BF00C2B3120958AC07AF05120958D2B3AF042E
:0109CF002205
:0C0AA100C2B31209587FFF120958D2B3EB
:010AAD002226
:0208A000784896
:1008A20012094EAD07E4FC784BE2FFECC39F501BEC
:1008B2007FFF1209587848E2FB08E2FA08E2F98C55
:0F08C20082758300EF1201510C80DCD2B3AF05B9
:0108D1002204
:09078C007BFE78647405F27F30F5
:02079500786189
:1007970012094EAD07E4FC7864E2FFECC39F501BDF
:1007A7007861E2FB0808E2F92401F218E2FA340062
:0F07B700F21200F9FF1209580C80DCD2B3AF0523
:0107C6002210
:0A080000783DEBF208EAF208E9F295
:10080A001209B4EB30E625C2B0783DE2FB08E2FA01
:10081A0008E2F9784B7420F27F611208A07DFF7F0D
:0E082A00E21209BFD2B0120A5E7F00227F01E7
:01083800229D
:1008D200C2B078647420F27FA0120795D2B020B51E
:1008E200FD1209B4EB30E40A7DFF7FE11209BF7FFC
:0B08F2001022EB30E5037F20227FFF87
:0108FD0022D8
:10062B00783D7C007DFE7BFF7A0A79BA7E007F05E0
:10063B001200D378427C007DFE7BFF7A0A79BF7E65
:10064B00007F051200D3C2B1D2B3C2B07A00793D9C
:10065B0012078C7BFE7A007942784B7405F27F107F
:10066B001208A07842E26411701708E2B422120853
:10067B00E2B4330D08E2B4440808E2B455037F003A
:03068B00227F01CA
:01068E002249
:10073C00C2B07D207F311209BF7DFF7FE21209BF5D
:10074C007A00793612078C7BFE7A007931786474E2
:10075C0005F27F2A1207957D017F211209BF7F22A6
:10076C001209BF7D1A7F241209BFE4FD7F251209EF
:10077C00BF7D0F7F261209BF7F201209BFD2B02286
:10099500C2B07D0E7F201209BFD2B07F0F120AAE02
:0F09A5001208D2C2B07D0F7F201209BFD2B0223C
:0A068F007821EBF208EAF208E9F224
:10069900E47826F208F21209E97824EEF208EFF27A
:1006A90024FFFFEE34FFFE1209287821E2FB08E25D
:1006B900FA08E2F9EF12013F7825E224FFFF18E278
:1006C90034FFFE7821E2FB08E2FA08E2F912054755
:0D06D9007821E2FB08E2FA08E2F902099537
:10092800E47828F208F2EF4E60147829E22401F204
:1009380018E23400F27C007D0A12017380E87828FE
:05094800E2FE08E2FFE1
:01094D002287
:10054700782CEBF208EAF208E9F2782AEEF208EFE3
:01055700F2B1
:10055800E4782FF208F2120928782FEEF208EFF269
:10056800D37830E2940018E264809480404B782A73
:10057800E2FE08E2FF7C007D0A120173ED2430FFE1
:10058800782CE2FB08E2FA08E2F908E2FC08E2F556
:10059800828C83EF120151782AE2FE08E2FF7C0088
:1005A8007D0A120173782AEEF208EFF27830E2241D
:0905B800FFF218E234FFF280A703
:0105C1002217
:0A06E600783DEBF208EAF208E9F2B1
:1006F0001209E9EF24FFFFEE34FFFEC3EE6480949D
:1007000080401F783DE2FB08E2FA08E2F98F828E12
:1007100083120112FD74412FF8EDF2EF1F70DC1E01
:1007200080D9783DE2FB08E2FA08E2F91209E9789B
:0C07300040EFF27BFE7A00794002099550
:030000000204BB3C
:0C04BB00787FE4F6D8FD75810702050289
:10000300E709F608DFFA8046E709F208DFFA803EDF
:1000130088828C83E709F0A3DFFA8032E309F608CC
:10002300DFFA8078E309F208DFFA807088828C8334
:10003300E309F0A3DFFA806489828A83E0A3F608E8
:10004300DFFA805889828A83E0A3F208DFFA804CC2
:1000530080D280FA80C680D4806980F28033801099
:1000630080A680EA809A80A880DA80E280CA803302
:1000730089828A83ECFAE493A3C8C582C8CCC5837A
:10008300CCF0A3C8C582C8CCC583CCDFE9DEE7804A
:100093000D89828A83E493A3F608DFF9ECFAA9F0C9
:1000A300EDFB2289828A83ECFAE0A3C8C582C8CC1F
:1000B300C583CCF0A3C8C582C8CCC583CCDFEADE38
:1000C300E880DB89828A83E493A3F208DFF980CC9A
:1000D30088F0EF60010E4E60C388F0ED2402B40493
:1000E3000050B9F582EB2402B4040050AF2323453A
:0600F3008223900053730C
:1000F900BB010689828A83E0225002E722BBFE0205
:09010900E32289828A83E4932237
:10011200BB010CE58229F582E5833AF583E02250A2
:1001220006E92582F8E622BBFE06E92582F8E222EC
:0D013200E58229F582E5833AF583E4932206
:10013F00BB010689828A83F0225002F722BBFE019F
:02014F00F32299
:10015100F8BB010DE58229F582E5833AF583E8F0E4
:10016100225006E92582C8F622BBFE05E92582C890
:02017100F22278
:10017300C2D5EC30E709B2D5E4C39DFDE49CFCEEA7
:1001830030E715B2D5E4C39FFFE49EFE1201A9C375
:10019300E49DFDE49CFC80031201A930D507C3E470
:0601A3009FFFE49EFE2216
:1009E900E4FFFE1200F9600C0FEF70010E09E970C7
:0509F900F20A80EF226C
:1004C7000201FEE493A3F8E493A34003F68001F24C
:1004D70008DFF48029E493A3F85407240CC8C33336
:1004E700C4540F4420C8834004F456800146F6DF05
:1004F700E4800B0102040810204080900A4CE47E3F
:10050700019360BCA3FF543F30E509541FFEE493F9
:10051700A360010ECF54C025E060A840B8E493A3C0
:10052700FAE493A3F8E493A3C8C582C8CAC583CAEB
:10053700F0A3C8C582C8CAC583CADFE9DEE780BEA3
:010A5D000098
:1001A900BC000BBE0029EF8DF084FFADF022E4CC3A
:1001B900F875F008EF2FFFEE33FEEC33FCEE9DEC03
:1001C900984005FCEE9DFE0FD5F0E9E4CEFD22ED49
:1001D900F8F5F0EE8420D21CFEADF075F008EF2F93
:1001E900FFED33FD4007985006D5F0F222C398FD84
:0501F9000FD5F0EA2221
:00000001FF
