:10010D0010083031323334353637383941424344B3
:02011D00454655
:100149001200F412008F74082FF8E6FF12013680AE
:01015900FEA7
:08018E007F017E02DEFEDFFAB4
:010196002246
:080197007F017E2FDEFEDFFA7E
:01019F00223D
:0C015A007F017E8E7D02DDFEDEFADFF606
:010166002276
:0801A0007F137E82DEFEDFFA10
:0101A8002234
:0C0167007F017E267D82DDFEDEFADFF6E1
:010173002269
:0C0174007F137E147D82DDFEDEFADFF6D4
:01018000225C
:0C0181007F177E987D46DDFEDEFADFF67B
:01018D00224F
:10012300C2A6C2A5C2A78F8012015AD2A71201A0EC
:03013300C2A7223E
:10013600D2A6C2A5C2A78F8012015AD2A71201A0C9
:03014600C2A7222B
:1000F4007F381201237F0C1201237F061201237F14
:09010400011201237F8002012396
:03011F00011800C4
:10008F0075900FE590640F605912015AE590640F57
:10009F006050751801AF90EF24F5601024FE6011C9
:1000AF0014601324077012E4F519800D751901807F
:1000BF000875190280037519037590F0AF90EF243E
:1000CF00F26014245E600824E060082460800E74DF
:1000DF0004800674088002740C2519F519E590B494
:0500EF00F0FBAF192237
:03000000020003F8
:0C000300787FE4F6D8FD75811902004AF0
:10000F00020149E493A3F8E493A34003F68001F2BD
:10001F0008DFF48029E493A3F85407240CC8C333F2
:10002F00C4540F4420C8834004F456800146F6DFC1
:10003F00E4800B010204081020408090010DE47E43
:10004F00019360BCA3FF543F30E509541FFEE493B6
:10005F00A360010ECF54C025E060A840B8E493A37D
:10006F00FAE493A3F8E493A3C8C582C8CAC583CAA8
:10007F00F0A3C8C582C8CAC583CADFE9DEE780BE60
:0101220000DC
:00000001FF
