:10060800FEFDFBF7EFDFBF7F3F065B4F666D7D07A3
:090618007F6F777C395E79710077
:100592001206901203A47F411206B77B007A0079FB
:1005A2002B1204E9EF70F4FB7A00792B12043A80E3
:0105B200EA5E
:080742007F017E02DEFEDFFAFA
:01074A00228C
:08074B007F017E2FDEFEDFFAC4
:010753002283
:0C06EB007F017E8E7D02DDFEDEFADFF670
:0106F70022E0
:080754007F137E82DEFEDFFA56
:01075C00227A
:0C06F8007F017E267D82DDFEDEFADFF64B
:0107040022D2
:0C0705007F137E147D82DDFEDEFADFF63D
:0107110022C5
:0C0712007F177E987D46DDFEDEFADFF6E4
:01071E0022B8
:0A07380011223344550000000000B8
:0E06CA000568FFFFFFFFFF0563FFFFFFFFFF57
:0B072C00E4FEEED39F4004000E80F7B7
:01073700229F
:10066800E4FFFED3EF9496EE940040070FBF00011D
:030678000E80F001
:01067B00225C
:10062100E4FEEF3392A4EF25E0FFD2A5A2A3E433C9
:080631004207C2A50EBE08EA53
:01063900229E
:0B05D2007F0712071FAB07AD037F2758
:1005DD00C2A6120621AC07AF05120621D2A6AF04A2
:0105ED0022EB
:0C071F00C2A61206217FFF120621D2A6FE
:01072B0022AB
:0604B8008B4F8A508951B0
:1004BE00C2A6120621AD07E4FCECC3955250177F7D
:1004CE00FF120621AB4FAA50A9518C82758300EF03
:0A04DE001201510C80E3D2A6AF0515
:0104E80022F1
:07047F007B007556057F307C
:060486008B538A548955D6
:10048C00C2A6120621AD07E4FCECC395565018AB7E
:10049C00530555E555AA547002055414F91200F988
:0B04AC00FF1206210C80E2D2A6AF0573
:0104B7002222
:0604E9008B4B8A4C894D8B
:1004EF001205D2EB30E61FC2A7AB4BAA4CA94D7534
:1004FF0052207F611204B87DFF7FE21205DDD2A783
:08050F001206687F00227F0143
:0105170022C1
:10054600C2A77556207FA0120486D2A720A2FD124C
:1005560005D2EB30E40A7DFF7FE11205DD7F102234
:09056600EB30E5037F20227FFF4A
:01056F002269
:10028A0078597C007D007BFF7A0779387E007F05EC
:10029A001200D3785E7C007D007BFF7A07793D7E71
:1002AA00007F051200D3C2A5D2A6C2A77A00795947
:1002BA0012047F7B007A00795E7552057F10120462
:1002CA00B8E55EB41117E55FB42212E560B4330DE8
:0F02DA00E561B44408E562B455037F00227F015B
:0102E90022F2
:1003A400C2A77D207F311205DD7DFF7FE21205DDCE
:1003B4007A00796812047F7B007A007963755605A8
:1003C4007F2A1204867D017F211205DD7F2212051A
:1003D400DD7D1A7F241205DDE4FD7F251205DD7D18
:0E03E4000F7F261205DD7F201205DDD2A72235
:1005B300C2A77D0E7F201205DDD2A77F0F12072C65
:0F05C300120546C2A77D0F7F201205DDD2A722A9
:06043A008B4B8A4C894D3A
:10044000E4F550F5511206538E4E8F4FE54F24FFC1
:10045000FFE54E34FFFE1205EEAB4BAA4CA94DEF63
:1004600012013FE54F24FFFFE54E34FFFEAB4BAAE0
:0F0470004CA94D12034AAB4BAA4CA94D0205B340
:1005EE00E4FBFAEF4E600E0BBB00010A7C007D0AA5
:0905FE0012017380EEAE02AF039E
:0106070022D0
:0A034A008E528F538B548A5589564A
:10035400E4F557F5581205EE8E578F58D3E55894A7
:1003640000E557648094804036AE52AF537C007DE4
:100374000A120173ED2430AB54AA55A9568558824C
:10038400855783120151AE52AF537C007D0A12018E
:0F039400738E528F53E558155870C1155780BDA1
:0103A3002237
:0603F2008B088A09890A4C
:1003F800120653EF24FFFFEE34FFFEC3EE64809431
:1004080080401BAB08AA09A90A8F828E83120112A9
:10041800FD740C2FF8A605EF1F70E01E80DDAB08F9
:10042800AA09A90A1206538F0B7B007A00790B02DE
:0204380005B30A
:0306D800017400AA
:10067C00D2A0120742D2A1120742C2A0120742C254
:04068C00A10207427E
:0F06DC00C2A0120742D2A1120742D2A0020742C7
:0202EA008F6D16
:1002EC00C2A1E4F574E56D7807A2E713D8FB24FFEF
:1002FC0092A0E56D25E0F56D120742D2A1120742DE
:10030C00C2A11207420574C3E5746480948840D579
:10031C00D2A0120742D2A130A01C056EAF6EEF33F3
:10032C0095E0FED3EF94C8EE6480948040E9C2A1BE
:0D033C001207427F0022C2A11207427F017A
:010349002291
:10051800E4F573D2A0F574D2A1120742E57325E081
:10052800F573A2A0E4334273120742C2A112074234
:0D0538000574C3E5746480948840DCAF73E3
:010545002293
:10063A008F6F8D7012067C7FA01202EAAF6F1202D2
:09064A00EAAF701202EA0206DCBC
:020570008F7189
:1005720012067C7FA01202EAAF711202EA12067C16
:0F0582007FA11202EA1205188F721206DCAF7207
:010591002247
:1006A400C2A6C2A5C2A78F80120754D2A7120754AC
:0306B400C2A722B8
:1006B700D2A6C2A5C2A78F80120754D2A712075489
:0306C700C2A722A5
:100690007F381206A47F0C1206A47F011206A47FE5
:0406A000800206A42A
:030000000201FEFC
:0C01FE00787FE4F6D8FD7581740202459C
:10000300E709F608DFFA8046E709F208DFFA803EDF
:1000130088828C83E709F0A3DFFA8032E309F608CC
:10002300DFFA8078E309F208DFFA807088828C8334
:10003300E309F0A3DFFA806489828A83E0A3F608E8
:10004300DFFA805889828A83E0A3F208DFFA804CC2
:1000530080D280FA80C680D4806980F28033801099
:1000630080A680EA809A80A880DA80E280CA803302
:1000730089828A83ECFAE493A3C8C582C8CCC5837A
:10008300CCF0A3C8C582C8CCC583CCDFE9DEE7804A
:100093000D89828A83E493A3F608DFF9ECFAA9F0C9
:1000A300EDFB2289828A83ECFAE0A3C8C582C8CC1F
:1000B300C583CCF0A3C8C582C8CCC583CCDFEADE38
:1000C300E880DB89828A83E493A3F208DFF980CC9A
:1000D30088F0EF60010E4E60C388F0ED2402B40493
:1000E3000050B9F582EB2402B4040050AF2323453A
:0600F3008223900053730C
:1000F900BB010689828A83E0225002E722BBFE0205
:09010900E32289828A83E4932237
:10011200BB010CE58229F582E5833AF583E02250A2
:1001220006E92582F8E622BBFE06E92582F8E222EC
:0D013200E58229F582E5833AF583E4932206
:10013F00BB010689828A83F0225002F722BBFE019F
:02014F00F32299
:10015100F8BB010DE58229F582E5833AF583E8F0E4
:10016100225006E92582C8F622BBFE05E92582C890
:02017100F22278
:10017300C2D5EC30E709B2D5E4C39DFDE49CFCEEA7
:1001830030E715B2D5E4C39FFFE49EFE1201A9C375
:10019300E49DFDE49CFC80031201A930D507C3E470
:0601A3009FFFE49EFE2216
:10065300E4FFFE1200F9600C0FEF70010E09E97060
:05066300F20A80EF2205
:10020A00020592E493A3F8E493A34003F68001F273
:10021A0008DFF48029E493A3F85407240CC8C333F5
:10022A00C4540F4420C8834004F456800146F6DFC4
:10023A00E4800B01020408102040809006CAE47E84
:10024A00019360BCA3FF543F30E509541FFEE493B9
:10025A00A360010ECF54C025E060A840B8E493A380
:10026A00FAE493A3F8E493A3C8C582C8CAC583CAAB
:10027A00F0A3C8C582C8CAC583CADFE9DEE780BE63
:0106DB00001E
:1001A900BC000BBE0029EF8DF084FFADF022E4CC3A
:1001B900F875F008EF2FFFEE33FEEC33FCEE9DEC03
:1001C900984005FCEE9DFE0FD5F0E9E4CEFD22ED49
:1001D900F8F5F0EE8420D21CFEADF075F008EF2F93
:1001E900FFED33FD4007985006D5F0F222C398FD84
:0501F9000FD5F0EA2221
:00000001FF
