:0809A9007F017E02DEFEDFFA91
:0109B1002223
:0809B2007F017E2FDEFEDFFA5B
:0109BA00221A
:0C0952007F017E8E7D02DDFEDEFADFF606
:01095E002276
:0809BB007F137E82DEFEDFFAED
:0109C3002211
:0C095F007F017E267D82DDFEDEFADFF6E1
:01096B002269
:0C096C007F137E147D82DDFEDEFADFF6D4
:01097800225C
:0C0979007F177E987D46DDFEDEFADFF67B
:01098500224F
:0309400081000033
:1008DE00D2A01209A9D2A11209A9C2A01209A9C2B5
:0408EE00A10209A9B1
:1008F200C2A01209A9D2A11209A9D2A01209A9C2A1
:04090200A10209A99C
:0404A1007874EFF28A
:1004A500C2A1E47800F27874E2FF7807A2E713D8D6
:1004B500FB24FF92A0EF25E07874F21209A9D2A1DE
:1004C5001209A9C2A11209A97800E204F2E2C364E3
:1004D50080948840D1D2A01209A9D2A130A01E785B
:1004E50075E204F2E2FF3395E0FED3EF94C8EE64C3
:1004F50080948040E7C2A11209A97F0022C2A112FF
:0405050009A97F01C0
:0105090022CF
:10071900E47870F2D2A07800F2D2A11209A9787017
:10072900E225E0FFF2A2A0E4334FF21209A9C2A127
:100739001209A97800E204F2E2C36480948840D9DE
:040749007870E2FFE3
:01074D002289
:100852007872EFF208EDF21208DE7FA01204A1789E
:1008620072E2FF1204A17873E2FF1204A11208F2ED
:030872000209BBBD
:0407DE00786EEFF250
:1007E2001208DE7FA01204A1786EE2FF1204A112A9
:1007F20008DE7FA11204A1120719786FEFF2120826
:05080200F2786FE2FF37
:0108070022CE
:0A06A600786EEBF208EAF208E9F2C0
:1006B000E408F2786EE2FB08E2FA08E2F990000141
:1006C000120112601A7871E2FFFD3395E08D82F518
:0F06D00083120112FD1208527871E204F280D4F5
:0106DF0022F8
:10091A00C2A6C2A5C2A78F801209BBD2A71209BB61
:03092A00C2A7223F
:10092D00D2A6C2A5C2A78F801209BBD2A71209BB3E
:03093D00C2A7222C
:1008B0007F3812091A7F0C12091A7F0612091A7F53
:0908C0000112091A7F8002091AD5
:0A074E00786EEBF208EAF208E9F217
:10075800E408F2786EE2FB08E2FA08E2F908E2FF40
:100768003395E08F82F583120112FF600A12092D7A
:070778007871E204F280DC5D
:01077F002257
:10042C00506C6561736520737461727420776974A4
:10043C0068203E0A00506C656173652063686563D3
:10044C006B207468652066696674682063686172E5
:10045C00616374657228302D34290A00FEFDFBF7A8
:10046C00EFDFBF7F3F065B4F666D7D077F6F777C4D
:10047C00395E797100383E35323130333837366376
:10048C0041446638353700000000000000000000D1
:05049C0000000000005B
:1001FE00784E7C007DFE7BFF7A0479817E007F2025
:10020E001200D31208B012061B2082FD784FE26452
:10021E003E600B7BFF7A04792C1205C5801E785048
:10022E00E26435601708E26432601108E2643160FE
:10023E000B08E2643060057EFF7FFF227854E2B443
:10024E0031147BFE7A00795512074E7BFE7A0079C7
:10025E00551206A680B37854E2B432247BFE7A009F
:10026E00795512074EE4784DF2784DE2C3940E5054
:10027E00987F1812091A120979784DE204F280E972
:10028E007854E2FF6433705D784DF2784DE2C3949A
:10029E00084003020217E2FE90046893F59074552D
:1002AE002EF8E2FED394395006EE9004408024E2FC
:1002BE00FED39466500CEEC394614006EE90041982
:1002CE008011E2FED39446500DEEC394414007EEEA
:1002DE0090043993F5B07EF4AD061EED70FA784DAC
:1002EE00E204F280A6EF643470207F3412092DE40C
:1002FE00784DF2784DE2FF2455F8E260191207DED0
:10030E0012092D784DE204F280E97BFF7A047941DF
:06031E001205C5020217E2
:0103240022B6
:0A099F00112233445500000000004F
:0E0943008548FFFFFFFFFF8543FFFFFF5210B7
:0B099300E4FEEED39F4004000E80F74E
:01099E002236
:10090600E4FFFED3EF9496EE940040070FBF00017C
:030916000E80F060
:0109190022BB
:0A082E00EBF208EAF208E9F2C286D4
:10083800E4FEEF339284EF25E0FFD285A283E43310
:090848004FFFC2850EEEB408E971
:010851002284
:0B0894007F07120986AB07AD037F272A
:10089F00C286120838AC07AF05120838D286AF04EB
:0108AF002226
:0C098600C2861208387FFF120838D286A3
:010992002242
:020780007822DD
:1007820012082EAD07E4FC7825E2FFECC39F501B54
:100792007FFF1208387822E2FB08E2FA08E2F98CBD
:0F07A20082758300EF1201510C80DCD286AF0507
:0107B1002225
:09066B007BFE78957405F27F30E6
:0206740078927A
:1006760012082EAD07E4FC7895E2FFECC39F501BF1
:100686007892E2FB0808E2F92401F218E2FA340053
:0F069600F21200F9FF1208380C80DCD286AF0593
:0106A5002232
:0A06E0007826EBF208EAF208E9F2CE
:1006EA00120894EB30E625C2877826E2FB08E2FA84
:1006FA0008E2F978257420F27F611207807DFF7F76
:0E070A00E212089FD2871209067F00227F01AB
:0107180022BE
:1007B200C28778957420F27FA0120674D2872082B5
:1007C200FD120894EB30E40A7DFF7FE112089F7F5F
:0B07D2001022EB30E5037F20227FFFA8
:0107DD0022F9
:10050A0078297C007DFE7BFF7A09799F7E007F0532
:10051A001200D3782E7C007DFE7BFF7A0979A47EB7
:10052A00007F051200D3C285D286C2877A00792954
:10053A0012066B7BFE7A00792E78257405F27F10FD
:10054A00120780782EE26411701708E2B4221208AA
:10055A00E2B4330D08E2B4440808E2B455037F005C
:03056A00227F01EC
:01056D00226B
:10061B00C2877D207F3112089F7DFF7FE212089FEA
:10062B007A00794812066B7BFE7A007943789574D1
:10063B0005F27F2A1206747D017F2112089F7F220B
:10064B0012089F7D1A7F2412089FE4FD7F25120854
:10065B009F7D0F7F2612089F7F2012089FD2872233
:10087500C2877D0E7F2012089FD2877F0F120993B2
:0F0885001207B2C2877D0F7F2012089FD28722F1
:0A056E007833EBF208EAF208E9F234
:10057800E47838F208F21208C97836EEF208EFF299
:1005880024FFFFEE34FFFE1208087833E2FB08E28E
:10059800FA08E2F9EF12013F7837E224FFFF18E288
:1005A80034FFFE7833E2FB08E2FA08E2F91203B1FD
:0D05B8007833E2FB08E2FA08E2F902087568
:10080800E4783AF208F2EF4E6014783BE22401F201
:1008180018E23400F27C007D0A12017380E8783A0D
:05082800E2FE08E2FF02
:01082D0022A8
:1003B100783EEBF208EAF208E9F2783CEEF208EF57
:0103C100F249
:1003C200E47841F208F21208087841EEF208EFF2FE
:1003D200D37842E2940018E264809480404B783CE7
:1003E200E2FE08E2FF7C007D0A120173ED2430FF79
:1003F200783EE2FB08E2FA08E2F908E2FC08E2F5DC
:10040200828C83EF120151783CE2FE08E2FF7C000D
:100412007D0A120173783CEEF208EFF27842E22490
:09042200FFF218E234FFF280A79A
:01042B0022AE
:0A05C500786EEBF208EAF208E9F2A2
:1005CF001208C9EF24FFFFEE34FFFEC3EE648094E0
:1005DF0080401F786EE2FB08E2FA08E2F98F828E04
:1005EF0083120112FD74722FF8EDF2EF1F70DC1EF3
:1005FF0080D9786EE2FB08E2FA08E2F91208C978AE
:0C060F0071EFF27BFE7A00797102087531
:03000000020325D3
:0C032500787FE4F6D8FD75810702036CB8
:10000300E709F608DFFA8046E709F208DFFA803EDF
:1000130088828C83E709F0A3DFFA8032E309F608CC
:10002300DFFA8078E309F208DFFA807088828C8334
:10003300E309F0A3DFFA806489828A83E0A3F608E8
:10004300DFFA805889828A83E0A3F208DFFA804CC2
:1000530080D280FA80C680D4806980F28033801099
:1000630080A680EA809A80A880DA80E280CA803302
:1000730089828A83ECFAE493A3C8C582C8CCC5837A
:10008300CCF0A3C8C582C8CCC583CCDFE9DEE7804A
:100093000D89828A83E493A3F608DFF9ECFAA9F0C9
:1000A300EDFB2289828A83ECFAE0A3C8C582C8CC1F
:1000B300C583CCF0A3C8C582C8CCC583CCDFEADE38
:1000C300E880DB89828A83E493A3F208DFF980CC9A
:1000D30088F0EF60010E4E60C388F0ED2402B40493
:1000E3000050B9F582EB2402B4040050AF2323453A
:0600F3008223900053730C
:1000F900BB010689828A83E0225002E722BBFE0205
:09010900E32289828A83E4932237
:10011200BB010CE58229F582E5833AF583E02250A2
:1001220006E92582F8E622BBFE06E92582F8E222EC
:0D013200E58229F582E5833AF583E4932206
:10013F00BB010689828A83F0225002F722BBFE019F
:02014F00F32299
:10015100F8BB010DE58229F582E5833AF583E8F0E4
:10016100225006E92582C8F622BBFE05E92582C890
:02017100F22278
:10017300C2D5EC30E709B2D5E4C39DFDE49CFCEEA7
:1001830030E715B2D5E4C39FFFE49EFE1201A9C375
:10019300E49DFDE49CFC80031201A930D507C3E470
:0601A3009FFFE49EFE2216
:1008C900E4FFFE1200F9600C0FEF70010E09E970E8
:0508D900F20A80EF228D
:100331000201FEE493A3F8E493A34003F68001F2E3
:1003410008DFF48029E493A3F85407240CC8C333CD
:10035100C4540F4420C8834004F456800146F6DF9C
:10036100E4800B0102040810204080900940E47EE3
:10037100019360BCA3FF543F30E509541FFEE49391
:10038100A360010ECF54C025E060A840B8E493A358
:10039100FAE493A3F8E493A3C8C582C8CAC583CA83
:1003A100F0A3C8C582C8CAC583CADFE9DEE780BE3B
:0109510000A5
:1001A900BC000BBE0029EF8DF084FFADF022E4CC3A
:1001B900F875F008EF2FFFEE33FEEC33FCEE9DEC03
:1001C900984005FCEE9DFE0FD5F0E9E4CEFD22ED49
:1001D900F8F5F0EE8420D21CFEADF075F008EF2F93
:1001E900FFED33FD4007985006D5F0F222C398FD84
:0501F9000FD5F0EA2221
:00000001FF
