:0809DA007F017E02DEFEDFFA60
:0109E20022F2
:0809E3007F017E2FDEFEDFFA2A
:0109EB0022E9
:0C0983007F017E8E7D02DDFEDEFADFF6D5
:01098F002245
:0809EC007F137E82DEFEDFFABC
:0109F40022E0
:0C0990007F017E267D82DDFEDEFADFF6B0
:01099C002238
:0C099D007F137E147D82DDFEDEFADFF6A3
:0109A900222B
:0C09AA007F177E987D46DDFEDEFADFF64A
:0109B600221E
:0309710081000002
:10090F00D2A01209DAD2A11209DAC2A01209DAC2F0
:04091F00A10209DA4E
:10092300C2A01209DAD2A11209DAD2A01209DAC2DC
:04093300A10209DA3A
:0404D2007875EFF258
:1004D600C2A1E47800F27875E2FF7807A2E713D8A4
:1004E600FB24FF92A0EF25E07875F21209DAD2A17B
:1004F6001209DAC2A11209DA7800E204F2E2C36450
:1005060080948840D1D2A01209DAD2A130A01E78F8
:1005160076E204F2E2FF3395E0FED3EF94C8EE6490
:1005260080948040E7C2A11209DA7F0022C2A1129C
:0405360009DA7F015E
:01053A00229E
:10074A00E47871F2D2A07800F2D2A11209DA7871B3
:10075A00E225E0FFF2A2A0E4334FF21209DAC2A1C5
:10076A001209DA7800E204F2E2C36480948840D97C
:04077A007871E2FFB1
:01077E002258
:100883007873EFF208EDF212090F7FA01204D27809
:1008930073E2FF1204D27874E2FF1204D212092326
:0308A3000209EC5B
:04080F00786FEFF21D
:1008130012090F7FA01204D2786FE2FF1204D212E2
:10082300090F7FA11204D212074A7870EFF212095E
:05083300237870E2FFD4
:01083800229D
:0A06D700786FEBF208EAF208E9F28E
:1006E100E408F2786FE2FB08E2FA08E2F99000010F
:1006F100120112601A7872E2FFFD3395E08D82F5E6
:0F07010083120112FD1208837872E204F280D491
:0107100022C6
:10094B00C2A6C2A5C2A78F801209ECD2A71209ECCE
:03095B00C2A7220E
:10095E00D2A6C2A5C2A78F801209ECD2A71209ECAB
:03096E00C2A722FB
:1008E1007F3812094B7F0C12094B7F0612094B7F8F
:0908F1000112094B7F8002094B42
:0A077F00786FEBF208EAF208E9F2E5
:10078900E408F2786FE2FB08E2FA08E2F908E2FF0E
:100799003395E08F82F583120112FF600A12095E18
:0707A9007872E204F280DC2B
:0107B0002226
:1003D500506C6561736520737461727420776974FC
:1003E50068203E0A0057726974653A005265616477
:1003F5003A00506C6561736520636865636B2074B2
:1004050068652066696674682063686172616374F3
:10041500657228302D34290A00FEFDFBF7EFDFBF9A
:100425007F3F065B4F666D7D077F6F777C395E7911
:100435007100383E353231303438373663414466E1
:100445003835370000000000000000000000000003
:020455000000A5
:1001FE00784E7401F2087C007DFE7BFF7A0479371D
:10020E007E007F201200D31208E112064C2082FDE0
:10021E007850E2643E600B7BFF7A0379D51205F6C7
:10022E00801E7851E26435601708E264326011086E
:10023E00E26431600B08E2643060057EFF7FFF22CE
:10024E007855E2B431227BFF7A0379EA12077F7B7D
:10025E00FE7A00795612077F7BFE7A0079561206D7
:10026E00D7784E7401F280A57855E2B432247BFE25
:10027E007A00795612077FE4784DF2784DE2C394F6
:10028E000E508A7F1812094B1209AA784DE204F219
:10029E0080E97855E2FF6433705D784DF2784DE277
:1002AE00C39408400302021BE2FE90041E93F590D5
:1002BE0074562EF8E2FED394395006EE9003F68073
:1002CE0024E2FED39466500CEEC394614006EE9089
:1002DE0003CF8011E2FED39446500DEEC3944140FD
:1002EE0007EE9003EF93F5B07EF4AD061EED70FAB7
:1002FE00784DE204F280A6EF64347033784EE270EB
:10030E000302021B7BFF7A0379F112077FE4784D1B
:10031E00F2784DE2FF2456F8E2600D12080F120932
:10032E005E784DE204F280E9E4784EF202021B7B25
:0B033E00FF7A0379F71205F602021B9C
:0A09D000112233445500000000001E
:0E0974008548FFFFFFFFFF8543FFFFFF521086
:0B09C400E4FEEED39F4004000E80F71D
:0109CF002205
:10093700E4FFFED3EF9496EE940040070FBF00014B
:030947000E80F02F
:01094A00228A
:0A085F00EBF208EAF208E9F2C286A3
:10086900E4FEEF339284EF25E0FFD285A283E433DF
:090879004FFFC2850EEEB408E940
:010882002253
:0B08C5007F071209B7AB07AD037F27C8
:1008D000C286120869AC07AF05120869D286AF0458
:0108E00022F5
:0C09B700C2861208697FFF120869D28610
:0109C3002211
:0207B1007822AC
:1007B30012085FAD07E4FC7825E2FFECC39F501BF2
:1007C3007FFF1208697822E2FB08E2FA08E2F98C5B
:0F07D30082758300EF1201510C80DCD286AF05D6
:0107E20022F4
:09069C007BFE78967405F27F30B4
:0206A500789348
:1006A70012085FAD07E4FC7896E2FFECC39F501B8E
:1006B7007893E2FB0808E2F92401F218E2FA340021
:0F06C700F21200F9FF1208690C80DCD286AF0531
:0106D6002201
:0A0711007826EBF208EAF208E9F29C
:10071B001208C5EB30E625C2877826E2FB08E2FA21
:10072B0008E2F978257420F27F611207B17DFF7F13
:0E073B00E21208D0D2871209377F00227F0118
:01074900228D
:1007E300C28778967420F27FA01206A5D287208252
:1007F300FD1208C5EB30E40A7DFF7FE11208D07FCC
:0B0803001022EB30E5037F20227FFF76
:01080E0022C7
:10053B0078297C007DFE7BFF7A0979D07E007F05D0
:10054B001200D3782E7C007DFE7BFF7A0979D57E55
:10055B00007F051200D3C285D286C2877A00792923
:10056B0012069C7BFE7A00792E78257405F27F109B
:10057B001207B1782EE26411701708E2B422120848
:10058B00E2B4330D08E2B4440808E2B455037F002B
:03059B00227F01BB
:01059E00223A
:10064C00C2877D207F311208D07DFF7FE21208D057
:10065C007A00794812069C7BFE7A0079437896746E
:10066C0005F27F2A1206A57D017F211208D07F2278
:10067C001208D07D1A7F241208D0E4FD7F251208C1
:10068C00D07D0F7F261208D07F201208D0D287226F
:1008A600C2877D0E7F201208D0D2877F0F1209C41F
:0F08B6001207E3C2877D0F7F201208D0D287225E
:0A059F007833EBF208EAF208E9F203
:1005A900E47838F208F21208FA7836EEF208EFF237
:1005B90024FFFFEE34FFFE1208397833E2FB08E22C
:1005C900FA08E2F9EF12013F7837E224FFFF18E257
:1005D90034FFFE7833E2FB08E2FA08E2F912045725
:0D05E9007833E2FB08E2FA08E2F90208A606
:10083900E4783AF208F2EF4E6014783BE22401F2D0
:1008490018E23400F27C007D0A12017380E8783ADC
:05085900E2FE08E2FFD1
:01085E002277
:10045700783EEBF208EAF208E9F2783CEEF208EFB0
:01046700F2A2
:10046800E47841F208F21208397841EEF208EFF226
:10047800D37842E2940018E264809480404B783C40
:10048800E2FE08E2FF7C007D0A120173ED2430FFD2
:10049800783EE2FB08E2FA08E2F908E2FC08E2F535
:1004A800828C83EF120151783CE2FE08E2FF7C0067
:1004B8007D0A120173783CEEF208EFF27842E224EA
:0904C800FFF218E234FFF280A7F4
:0104D1002208
:0A05F600786FEBF208EAF208E9F270
:100600001208FAEF24FFFFEE34FFFEC3EE6480947D
:1006100080401F786FE2FB08E2FA08E2F98F828ED1
:1006200083120112FD74732FF8EDF2EF1F70DC1EC0
:1006300080D9786FE2FB08E2FA08E2F91208FA784A
:0C06400072EFF27BFE7A0079720208A6CD
:03000000020349AF
:0C034900787FE4F6D8FD75810702039070
:10000300E709F608DFFA8046E709F208DFFA803EDF
:1000130088828C83E709F0A3DFFA8032E309F608CC
:10002300DFFA8078E309F208DFFA807088828C8334
:10003300E309F0A3DFFA806489828A83E0A3F608E8
:10004300DFFA805889828A83E0A3F208DFFA804CC2
:1000530080D280FA80C680D4806980F28033801099
:1000630080A680EA809A80A880DA80E280CA803302
:1000730089828A83ECFAE493A3C8C582C8CCC5837A
:10008300CCF0A3C8C582C8CCC583CCDFE9DEE7804A
:100093000D89828A83E493A3F608DFF9ECFAA9F0C9
:1000A300EDFB2289828A83ECFAE0A3C8C582C8CC1F
:1000B300C583CCF0A3C8C582C8CCC583CCDFEADE38
:1000C300E880DB89828A83E493A3F208DFF980CC9A
:1000D30088F0EF60010E4E60C388F0ED2402B40493
:1000E3000050B9F582EB2402B4040050AF2323453A
:0600F3008223900053730C
:1000F900BB010689828A83E0225002E722BBFE0205
:09010900E32289828A83E4932237
:10011200BB010CE58229F582E5833AF583E02250A2
:1001220006E92582F8E622BBFE06E92582F8E222EC
:0D013200E58229F582E5833AF583E4932206
:10013F00BB010689828A83F0225002F722BBFE019F
:02014F00F32299
:10015100F8BB010DE58229F582E5833AF583E8F0E4
:10016100225006E92582C8F622BBFE05E92582C890
:02017100F22278
:10017300C2D5EC30E709B2D5E4C39DFDE49CFCEEA7
:1001830030E715B2D5E4C39FFFE49EFE1201A9C375
:10019300E49DFDE49CFC80031201A930D507C3E470
:0601A3009FFFE49EFE2216
:1008FA00E4FFFE1200F9600C0FEF70010E09E970B7
:05090A00F20A80EF225B
:100355000201FEE493A3F8E493A34003F68001F2BF
:1003650008DFF48029E493A3F85407240CC8C333A9
:10037500C4540F4420C8834004F456800146F6DF78
:10038500E4800B0102040810204080900971E47E8E
:10039500019360BCA3FF543F30E509541FFEE4936D
:1003A500A360010ECF54C025E060A840B8E493A334
:1003B500FAE493A3F8E493A3C8C582C8CAC583CA5F
:1003C500F0A3C8C582C8CAC583CADFE9DEE780BE17
:010982000074
:1001A900BC000BBE0029EF8DF084FFADF022E4CC3A
:1001B900F875F008EF2FFFEE33FEEC33FCEE9DEC03
:1001C900984005FCEE9DFE0FD5F0E9E4CEFD22ED49
:1001D900F8F5F0EE8420D21CFEADF075F008EF2F93
:1001E900FFED33FD4007985006D5F0F222C398FD84
:0501F9000FD5F0EA2221
:00000001FF
